:040000008A15ED2B45
:10000800FF00030E83018316B9000A08B8008A01AD
:1000180083128C1E13281A08CA000130E0008316C8
:0E00280038088A00390E8300FF0E7F0E090093
:10003600831603134C088312880009150330FC004D
:100046009730FD00FD0B2528FC0B2528000000003D
:040056000911080084
:10005A008316031314193528111A35280310362864
:10006A00031403183C2891193C2870103D28701479
:10007A0070184528831603131119452803104628BA
:10008A00031403184E288316031391184E28701070
:10009A004F287014701857288316031311185728FD
:0E00AA00031058280314031C5B282D2808009F
:1000B800831603134B08B5004B08CC001B2008001F
:1000C800710DF80DF90D7408F8027508031C750F09
:1000D800F902F00DF10D0F30FC00710DF80DF90D5E
:1000E8007408701C7D28F8027508031C750FF90246
:1000F8008228F80775080318750FF907F00DF10D38
:10010800FC0B712870188E287408F80775080318F6
:08011800750FF9070000080053
:10012000831603134B08B5008312091483164B087A
:08013000CC001B20091008009F
:0E013800831603133C088A003B08820008006F
:100146007B15FB1FAD280130F300F201F101F00130
:08015600FA0DF20CFF30080065
:0E015E00831603134408831293002D2008001B
:0A016C008316031311142D20080060
:0E017600F201F101F001F801F3010030080080
:0A0184008316031311152D20080047
:10018E0083160313C7014408CB005C208316C701F6
:10019E0047084507F00046080318013EF1007008B5
:1001AE00BB007108BC009C208A110A12F100710874
:1001BE000A3A0319F52847084507F00046080318C0
:1001CE00013EF1007008BB007108BC009C208A1132
:0E01DE000A12CB0090208316C70ACF28080013
:0801EC00FA1FF21300300800B5
:1001F400013083160313B5000130CC001B20080026
:10020400831203137408003A031D11297508003A78
:10021400031D1129FF30F0007F30F1006A29831299
:100224000313FD01F901F801710870040319003486
:1002340071087506FA00FA1BFD09FB01F51F272951
:10024400F409F509F40A0319F50AF11F2E29F00936
:10025400F109F00A0319F10A71087504FA00FA1B8E
:10026400432964207B185629FD1F0034F009F10945
:10027400F00A0319F10AF809F909F80A0319F90A45
:100284000034F51F5229F11B4E297108F90070083A
:10029400F800F101F0013629F101F001F00A00340F
:1002A400F109F009FB0A3329F80A0319F90A740859
:1002B4007802031D362975087902031D3629F901D0
:1002C400F801F00A0319F10AF11F36290000FF347E
:0202D400080020
:1002D600303083160313C8003030C9000A30CA0014
:1002E6004408CB005C20F03083164505F300460831
:1002F600F4000030F4057308F0007408F100F10C06
:10030600F00CF113F10CF00CF113F10CF00CF113ED
:10031600F10CF00CF1134808F0077008C8000F3014
:100326004505F0007008C907C7014708C83E8400A4
:1003360000080A3A0319A8294708C83E840000089D
:0C034600CB0090208316C70A98290800FD
:0A0352008316031391142D200800F8
:10035C000330831603134405F2007208F000F00D0D
:10036C007010F00D7010F00D7010F00D7010700812
:10037C008312970483164408F0004508F100F10C31
:10038C00F00CF113711BF117F10CF00CF113711B44
:0A039C00F1177008831295000800A5
:1003A6002D208316031391152D2083120313130892
:1003B6008316C5002D20831603134418E4299112D1
:0C03C600E529911611164508F00008000A
:1003D200831603134408CB005C208316450884006F
:1003E20000080A3A0319FD29450884000008CB00D9
:0A03F20090208316C50AEE290800CA
:1003FC00B620D03083160313C400AF20831603132A
:10040C00C401AF208312031369088316C400AF2004
:10041C00831203136A088316C400AF2083120313DC
:10042C006F088316C400AF20831203136E08831663
:10043C00C400AF20831603133208C400AF2083120C
:10044C0003136C088316C400AF20831203136B08CC
:0A045C008316C400AF20C220080080
:10046600812A103083120313C9001030F000BF2A0E
:100476003130C9003130F000BF2A3230C900323085
:10048600F000BF2A3330C9003330F000BF2A4130B4
:10049600C9004130F000BF2A3430C9003430F000C2
:1004A600BF2A3530C9003530F000BF2A3630C900C2
:1004B6003630F000BF2A4230C9004230F000BF2A71
:1004C6003730C9003730F000BF2A3830C90038301D
:1004D600F000BF2A3930C9003930F000BF2A433056
:1004E600C9004330F000BF2A3030C9003030F00078
:1004F600BF2A4430C9004430F000BF2A83120313D8
:100506004A08003A0319342A4A08313A03193B2AA1
:100516004A08323A0319402A4A08333A0319452A47
:100526004A08613A03194A2A4A08343A03194F2AF3
:100536004A08353A0319542A4A08363A0319592AF9
:100546004A08623A03195E2A4A08373A0319632AA7
:100556004A08383A0319682A4A08393A03196D2AAB
:100566004A08633A0319722A4A08303A0319772A65
:0A0576004A08643A03197C2A0800C1
:100580003030831603134102031CCE2A4108393C44
:0E059000031CCE2A30304102F000CE2A0800B3
:10059E000A3083120313F4000030F500831641086D
:1005AE00F0004208F100022170088316B4000A30F0
:1005BE00F4000030F5004108F0004208F10002217D
:1005CE007808F0007908F10070088316B30008006F
:1005DE00013083120313F1007108103A0319992B9D
:1005EE00710886000D30FC00FB30FD00FD0BFD2A6E
:1005FE00FC0BFD2A000000000608F200562B3130DD
:10060E00F3007308F0009D2B3230F3007308F000F6
:10061E009D2B3330F3007308F0009D2B4130F30017
:10062E007308F0009D2B3430F3007308F0009D2BFF
:10063E003530F3007308F0009D2B3630F30073084D
:10064E00F0009D2B4230F3007308F0009D2B3730E5
:10065E00F3007308F0009D2B3830F3007308F000A0
:10066E009D2B3930F3007308F0009D2B4330F300BF
:10067E007308F0009D2B2A30F3007308F0009D2BB9
:10068E003030F3007308F0009D2B2330F300730815
:10069E00F0009D2B4430F3007308F0009D2B720880
:1006AE00113A0319062B7208213A03190B2B720803
:1006BE00413A0319102B7208813A0319152B72084F
:1006CE00123A03191A2B7208223A03191F2B7208B9
:1006DE00423A0319242B7208823A0319292B720805
:1006EE00143A03192E2B7208243A0319332B72086D
:1006FE00443A0319382B7208843A03193D2B7208B9
:10070E00183A0319422B7208283A0319472B72081C
:10071E00483A03194C2B7208883A0319512BF10DE4
:0E072E007110F32A1030F3007308F000080079
:10073C00831203130914303083164107F00070083C
:10074C00B5007008CC001B20303083164207F00037
:10075C007008B5007008CC001B20DF308316B50084
:10076C00DF30CC001B2043308316B5004330CC0067
:06077C001B20091008001B
:10078200803083120313F000803083163706700224
:10079200031DCD2B3608193C031CD32BC401C50104
:1007A200AE21132C803083163706F00080307002A1
:1007B200031DDD2B1A303602031CF02B8030F000B3
:1007C200803037067002031DE82B36081E3C031CDE
:1007D200F02B4D30C4000130C500AE21132C803007
:1007E20083163706F00080307002031DFA2B1F308B
:1007F2003602031C0D2C8030F00080303706700268
:10080200031D052C3608233C031C0D2C9A30C40012
:100812000230C500AE21132CE7308316C40003302A
:06082200C500AE21080034
:10082800853083160313C4003208C500C6016B2146
:100838008C30C40083126B088316C500C6016B2177
:10084800C530C40083126F088316C500C6016B212A
:10085800C830C40083126A088316C500C6016B211C
:10086800CB30C400831269088316C500C6016B210A
:02087800080076
:10087A00B620D03083160313C400AF2083160313A7
:10088A00C401AF20A921D13083160313C400AF20BD
:10089A0083160313C401D32170088312E900831657
:1008AA00C401D32170088312EA008316C401D3213C
:1008BA0070088312EF008316C401D32170088312D3
:1008CA00EE008316C401D3217008B200C401D321FB
:1008DA0070088312EC0001308316C400D32170081B
:1008EA008312EB00C220831203136E08003A031D21
:1008FA00802C0130EE006D086E060319582D6E0823
:10090A00ED00A32C44308316AF00C02C83164C3064
:10091A00AF00C02C83164D30AF00C02C83166D304B
:10092A00AF00C02C83164A30AF00C02C8316563055
:10093A00AF00C02C83165330AF00C02C83126D0851
:10094A00013A0319872C6D08023A03198B2C6D089A
:10095A00033A03198F2C6D08043A0319932C6D0876
:10096A00053A0319972C6D08063A03199B2C6D0852
:10097A00073A03199F2C212D45308316A8006E30A3
:10098A00A9006530AA00522D83164630A8006530AA
:10099A00A9006230AA00522D83164D30A80061309A
:1009AA00A9007230AA00522D83164130A800623085
:1009BA00A9007230AA00522D83164D30A80061306A
:1009CA00A9007930AA00522D83164A30A800753042
:1009DA00A9006E30AA00522D83164A30A80075303D
:1009EA00A9006C30AA00522D83164130A800673046
:1009FA00A9006F30AA00522D83165330A800653023
:100A0A00A9007030AA00522D83164F30A800633017
:100A1A00A9007430AA00522D83164E30A8006F30F8
:100A2A00A9007630AA00522D83164430A8006930F6
:100A3A00A9006330AA00522D83126C08013A0319E7
:100A4A00C12C6C08023A0319C92C6C08033A031921
:100A5A00D12C6C08043A0319D92C6C08053A0319ED
:100A6A00E12C6C08063A0319E92C6C08073A0319B9
:100A7A00F12C6C08083A0319F92C6C08093A031985
:100A8A00012D6C08103A0319092D6C08113A031943
:100A9A00112D6C08123A0319192D80308316C400DF
:080AAA00A030C500E92108009D
:100AB2007B14FB1F642DF201FA1FFF30F200F100DC
:0A0AC200F000FA0DF20CFF300800FE
:100ACC00FB14FB1F702DFF30F300F200F100F0005F
:080ADC00FA0DF20CFF300800D6
:100AE400A0017208031D872D7108F2007008F1003F
:100AF400F001A0157208031D872D7108F200F101A1
:100B0400A011201672080319952D2008F302031D65
:100B1400031C992D0310F21B9D2DF00DF10DF20D08
:100B2400F30B8D2D992D0130FC00BB20A02D02303C
:0E0B3400FC00A320A02D0430FC00F6200800D9
:100B4200FA200130CD0080308316C400CD30C500BC
:100B52000730C600C720C030C400EC30C5000730E3
:060B6200C600C7200800D8
:100B6800FA2080308316C400A030C500E921C030C7
:0A0B7800C4004F30C500E921080059
:100B820083120313FB017308031D77080319182E40
:100B920072087606FA007708F3077E30031CD52D1B
:100BA200F30203181B2ED82DF302031C1E2E72080B
:100BB200F8007108FC007008FD00F817F617031022
:100BC200F201F101F0011830A0007D1CF22D740831
:100BD200F00775080318750FF10776080318760FEA
:100BE200F207F20CF10CF00CF80CFC0CFD0C0310EB
:100BF200A00BE62DF21B022EF80DF00DF10DF20DF9
:100C0200F3037B1B701C142EF81F142EF00A031919
:100C1200F10A0319F20A031D142EF20CF10CF00C66
:100C2200F30A03191B2EFA1FF2130030202E013093
:100C3200BB20202E02306625202E0430A320000087
:020C42000800A8
:100C440083120313FB01730803195F2E7208FA0061
:100C5400F2178E30F302F31F622EF309F30A083001
:100C64007302031C452EF300F10D7208F100F2012A
:100C740008307302031C452EF300F10DF1017308D3
:100C8400031D03104D2E730803194D2E0310F20C8F
:100C9400F10CF30B482E7B1B711C572E031C572E93
:100CA400F10A0319F20AF21B6E2EFA1F712EF209D1
:100CB400F109F10A0319F20A712EF201F101712E00
:100CC4007B14FB1F742EF201FA1F742EFF30F20006
:100CD400F100FA0DF20C742E0130FC00762E003077
:100CE400FC00762EFF30FC00FC0803197A2E5925EF
:0A0CF4007108F0007208F10008001A
:100CFE008312031360080319872EE0013322882E16
:040D0E00EF220800C8
:100D1200C03083160313CB005C2083163608C10053
:100D22003708C200CF223408C1003308C2003A0893
:080D3200C3009E23C123080049
:0A0D3A00831603138715071608003F
:100D4400831203137008F8007108F000F101F20136
:100D5400F301FB01FC019630F300FA01F01FB82EF9
:100D6400F809F009F80A0319F00AFA177008F100F3
:0C0D74007808F000F801F2017225080078
:100D8000B620903083160313C400AF2083160313DC
:100D9000C401AF20A921913083160313C400AF20F2
:100DA00083160313C401D3217008BD000130C400B1
:100DB000D3217008BE00C220831603133D08F10042
:100DC000F0013E087004BF007108C0000030C0048C
:100DD0000730F2003F08F0004008F10072080319E4
:100DE000F82EF10CF00CF113711BF117FF3EEF2EF2
:100DF0007008BF007108C0003F08F0004008F10013
:100E0000A2260030F4000030F5000030F6007E30FD
:100E1000F700C125222670088316B6007108B700B6
:020E20000800C8
:100E2200C12383169818162F122F5430831299005B
:100E3200831698181D2F192F453083129900831697
:100E42009818242F202F4D3083129900831698185A
:100E52002B2F272F3A308312990083169818322F9E
:100E62002E2F3030340783129900831698183A2FA8
:100E7200362F303033078312990083169818422F89
:100E82003E2FBA308312990083169818492F452FA6
:100E920043308312990083169818502F4C2F20301C
:060EA20083129900080014
:0A0EA800831603133D0392000800B7
:100EB2008312031397131713971517158C10121516
:060EC20083160711080071
:100EC8009C208A110A128000840ABB0A0319BC0AF2
:080ED800F003031D642F080064
:100EE0009D26831294159416093083169300941747
:020EF0000800F8
:0C0EF200831603178901F0308600080009
:100EFE0083160317880100308312031389053030DF
:100F0E00880000308316890588014130FC00EE30E0
:100F1E00FD00FD0B902FFC0B902F00003830B5001C
:100F2E003830CC001B200C308316B5000C30CC00B2
:100F3E001B2006308316B5000630CC001B2008009F
:100F4E008316031318121811031787111930031380
:100F5E009900831298171816831698168C160B176D
:080F6E008B178801051608002D
:10100000803083160313C4003330C5008A11E921F0
:101010008A15C030C4002230C5008A11E9218A1522
:101020000E2B83168530CB008A115C208A1545086B
:101030008316CB008A1190208A154508B800450810
:10104000C80045088316C1008A11C0228A1570089D
:101050008312C7007008C600C60D4610C60D4610A4
:10106000C60D4610C60D46100130A1004F2B450895
:10107000443A031D4428A10185308316CB008A1110
:101080005C208A15B8014F2B86308316CB008A115D
:101090005C208A1545088316CB008A1190208A159A
:1010A0004508B9004508C80045088316C1008A11E3
:1010B000C0228A1570088312C7007008E400700807
:1010C0004604E3000230A1004F2B4508443A031DBB
:1010D00073280130A10086308316CB008A115C2072
:1010E0008A15B9014F2B88308316CB008A115C20FA
:1010F0008A1545088316CB008A1190208A15450869
:10110000BB004508C80045088316C1008A11C022EB
:101110008A1570088312C7007008C600C60D4610F5
:10112000C60D4610C60D4610C60D46100330A10070
:101130004F2B4508443A031DA7280230A1008830F0
:101140008316CB008A115C208A15BB014F2B893096
:101150008316CB008A115C208A1545088316CB00C4
:101160008A1190208A154508BC004508C80045082A
:101170008316C1008A11C0228A1570088312C70025
:101180007008E40070084604E2000430A1004F2B10
:101190004508443A031DD6280330A1008930831640
:1011A000CB008A115C208A15BC014F2B8B30831633
:1011B000CB008A115C208A1545088316CB008A1162
:1011C00090208A154508BE004508C80045088316CA
:1011D000C1008A11C0228A1570088312C7007008E6
:1011E000C600C60D4610C60D4610C60D4610C60DEB
:1011F00046100530A1004F2B4508443A031D0A292B
:101200000430A1008B308316CB008A115C208A1534
:10121000BE014F2B8C308316CB008A115C208A15BF
:1012200045088316CB008A1190208A154508BF0017
:101230004508C80045088316C1008A11C0228A15D6
:1012400070088312C7007008E40070084604E500C7
:101250000630A1004F2B4508443A031D39290530BB
:10126000A1008C308316CB008A115C208A15BF0147
:101270004F2B8E308316CB008A115C208A154508CF
:101280008316CB008A1190208A154508C1004508B5
:10129000C80045088316C1008A11C0228A1570084B
:1012A0008312C7007008C600C60D4610C60D461052
:1012B000C60D4610C60D46100730A1004F2B45083D
:1012C000443A031D6D290630A1008E308316CB00F1
:1012D0008A115C208A15C1014F2B8F308316CB00F9
:1012E0008A115C208A1545088316CB008A1190204C
:1012F0008A154508C2004508C80045088316C10084
:101300008A11C0228A1570088312C7007008E40091
:1013100070084604E8000830A1004F2B4508443A05
:10132000031D9C290730A1008F308316CB008A1142
:101330005C208A15C2014F2BC5308316CB008A1161
:101340005C208A1545088316CB008A1190208A15E7
:101350004508A7004508C80045088316C1008A1142
:10136000C0228A1570088312C7007008C600C60D17
:101370004610C60D4610C60D4610C60D4610093063
:10138000A1004F2B4508443A031DD0290830A10085
:10139000C5308316CB008A115C208A15A7014F2B1C
:1013A000C6308316CB008A115C208A154508831647
:1013B000CB008A1190208A154508A8004508C8006E
:1013C00045088316C1008A11C0228A15700883124D
:1013D000C7007008E40070084604E7000A30A10066
:1013E0004F2B4508443A031DFF290930A100C630A0
:1013F0008316CB008A115C208A15A8014F2BC830B8
:101400008316CB008A115C208A1545088316CB0011
:101410008A1190208A154508AA004508C800450889
:101420008316C1008A11C0228A1570088312C70072
:101430007008C600C60D4610C60D4610C60D4610F3
:10144000C60D46100B30A1004F2B4508443A031D32
:10145000332A0A30A100C8308316CB008A115C20E1
:101460008A15AA014F2BC9308316CB008A115C2044
:101470008A1545088316CB008A1190208A154508E5
:10148000AB004508C80045088316C1008A11C02278
:101490008A1570088312C7007008E40070084604BB
:1014A000E6000C30A1004F2B4508443A031D622A88
:1014B0000B30A100C9308316CB008A115C208A153D
:1014C000AB014F2BCB308316CB008A115C208A15E1
:1014D00045088316CB008A1190208A154508AD0077
:1014E0004508C80045088316C1008A11C0228A1524
:1014F00070088312C7007008C600C60D4610C60DDE
:101500004610C60D4610C60D46100D30A1004F2BDB
:101510004508443A031D962A0C30A100CB308316AF
:10152000CB008A115C208A15AD014F2BCC3083167D
:10153000CB008A115C208A1545088316CB008A11DE
:1015400090208A154508AE004508C8004508831656
:10155000C1008A11C0228A1570088312C700700862
:10156000E40070084604E1000E30A1004F2B45084E
:10157000443A031DC52A0D30A100CC308316CB00A0
:101580008A115C208A15AE014F2B0F30A1004F2B22
:101590004508433A031D0D2B6108E9006608EA007F
:1015A0006708EF006808EE0063088316B200831234
:1015B0006208EC006508EB00ED018A11FE218A1536
:1015C0008A113D248A158A1114248A150130831248
:1015D000CD00A101C8012030B8002030B900203072
:1015E000BB002030BC002030BE002030BF002030C7
:1015F000C1002030C2002030A7002030A8002030D9
:10160000AA002030AB002030AD002030AE008A119F
:10161000FA208A158A11A1258A154F2B83122108D9
:10162000003A031911282108013A03193728210823
:10163000023A031965282108033A03199928210859
:10164000043A0319C8282108053A0319FC2821087F
:10165000063A03192B292108073A03195F292108A3
:10166000083A03198E292108093A0319C2292108C9
:101670000A3A0319F12921080B3A0319252A2108EE
:101680000C3A0319542A21080D3A0319882A210813
:101690000E3A0319B72A21080F3A0319C82A08007D
:1016A0008A117F268A157008C5007008103A031940
:1016B000D82B45084C060319D82BC62B4508413AB0
:1016C000031D692B0130CD000130CB008A11A1250B
:1016D0008A15D72B83124508313A031D842B02301B
:1016E000CD008A11FA208A1580308316C400333069
:1016F000C5008A11E9218A15C030C4002230C50016
:101700008A11E9218A15A82B83124508323A031D54
:101710009F2B0330CD008A11FA208A158030831662
:10172000C400DE30C5000730C6008A11C7208A1504
:1017300001308312CE008A1189268A15A82B45080C
:10174000423A031DA82BCB01CD018A11B4258A157D
:10175000D72B83124508423A031DB22B8A11A125CB
:101760008A15B32B0020D72B831203134508423A66
:10177000031DBF2BCE018A11A1258A15C52B01306F
:101780008312CE008A1189268A15D72B83124D0821
:10179000003A03195E2B4D08013A03196A2B4D08D4
:1017A000023A0319A92B4D08033A0319B42BE12B74
:1017B000831203134B08003A031DE12B8A111424F2
:1017C0008A15031383124E08013A031DEA2B8A116E
:0A17D00089268A154508CC000800A0
:1017DA006E248A11A7278A158A117F278A158A11EA
:1017EA0079278A158A1170278A158A11FE218A1586
:1017FA008A1159278A150030BD000130BE008A11AE
:10180A0054278A15C401C5018A11AE218A158A1185
:10181A00B4258A15071050238A113D248A158A1186
:0E182A00C0268A158A1111278A15102C1B2C36
:1018DC00213084004C3083120313F0002130831626
:1018EC00BB000C30BC008A1164278A15A030840020
:1018FC001230F000BB308316BB000730BC008A11DD
:10190C0064278A156D3084000330F000F93083169B
:10191C00BB000730BC008A1164278A15B2308400E2
:10192C000130F00003308316BB000030BC008A117C
:06193C0064278A15080073
:020006000134C3
:100F760044344134543445343A34203420342F3404
:100F86002034203420342F34203420347E3420344E
:040F96000A340034E5
:100F9A0031342D3443346F346E3466345F3448341C
:100FAA00723473342F3444346134743465340A34FB
:020FBA00003401
:100FBC00543445344D345034453452344134543423
:0C0FCC005534523441343A340A340034B5
:100FD80032342D344D346F34733474345F345434B4
:0A0FE80065346D3470340A340034AF
:020FF2000034C9
:020FF4000134C6
:020FF6000034C5
:02184200003470
:10184400543449344D3445343A34203420343A3411
:10185400203420343A3420342034203420340A34E0
:0218640000344E
:1018660044344134543445343A34203420342F340B
:10187600203420342F34203420343A342034203499
:041886000A340034EC
:02188A00003428
:02188C00003426
:02188E00003424
:02189000003422
:02189200003420
:0218940000341E
:0218960000341C
:0218980010340A
:02189A00003418
:02189C00003416
:10189E00543449344D3445343A34203420343A34B7
:1018AE00203420343A3420342034203420340A3486
:0218BE000034F4
:0218C0000034F2
:0218C2000034F0
:0218C4000034EE
:0218C6000034EC
:0218C8000034EA
:0218CA000034E8
:0218CC000034E6
:0218CE000034E4
:0218D0000034E2
:0218D2000034E0
:0218D4000034DE
:0218D6002034BC
:0218D8000134D9
:04400E00F22F000786
:00000001FF
